:020000040800F2
:1000000090AE0024A5030008F7560008BF5400086E
:10001000F5560008490A00086D810008000000003C
:10002000000000000000000000000000E5020008E1
:10003000D90E00080000000041030008955B00088D
:10004000BF030008BF030008BF030008BF03000888
:10005000BF030008BF030008BF030008BF03000878
:10006000BF030008BF030008BF030008950A00088B
:10007000BF030008BF030008BF030008BF03000858
:10008000BF030008BF030008BF030008BF03000848
:10009000BF030008BF030008BF030008BF03000838
:1000A000BF030008BF030008BF030008BF03000828
:1000B000BF030008BF030008BF030008BF03000818
:1000C000BF030008BF030008BF030008BF03000808
:1000D000BF03000865660008BF030008BF030008EF
:1000E000BF030008BF03000800000000BF030008B2
:1000F000BF030008BF030008BF030008BF030008D8
:10010000BF030008BF030008BF030008BF030008C7
:10011000BF030008BF030008BF030008BF030008B7
:10012000BF030008BF030008BF030008BF030008A7
:10013000BF030008BF030008BF030008BF03000897
:1001400000000000000000000000000000000000AF
:10015000BF030008BF030008BF030008BF03000877
:10016000BF030008BF030008BF030008BF03000867
:10017000BF030008F9560008BF0300080000000094
:10018000BF030008BF030008BF030008BF03000847
:10019000BF030008BF030008BF030008BF03000837
:1001A000BF030008BF030008BF03000800000000F1
:1001B000BF030008BF030008BF030008BF03000817
:1001C000BF030008BF03000800000000000000009B
:1001D0000000000000000000BF0300080000000055
:1001E000000000000000000000000000000000000F
:1001F0000000000000000000BF030008BF0300086B
:10020000BF030008BF03000800000000BF03000890
:10021000BF030008BF0300081D5D0008BF030008FE
:10022000BF03000800000000BF030008000000003A
:10023000BF030008BF03000800000000BF03000860
:10024000BF030008BF030008BF030008BF03000886
:10025000BF030008BF030008BF030008BF03000876
:10026000BF030008BF030008BF030008BF03000866
:10027000BF030008BF030008BF0300080000000020
:10028000BF030008BF030008BF030008BF03000846
:1002900000000000BF030008BF03000800000000CA
:1002A00000000000BF030008BF030008BF030008F0
:1002B000BF030008BF030008BF030008BF03000816
:1002C000BF030008BF030008BF030008DFF810D019
:1002D00000F00EFB004800470F960008AFF30080C7
:1002E00090AE00242C4B19680868B0E8F04F80F3FA
:1002F0000988BFF36F8F4FF0000080F311887047BB
:100300000000000008480068006880F308884FF08B
:10031000000080F3148862B661B6BFF34F8FBFF35D
:100320006F8F00DF00BF00BF08ED00E0DFF80C00BA
:10033000016841F470010160704700BF88ED00E082
:10034000EFF30980BFF36F8F134B1A681EF0100F85
:1003500008BF20ED108A20E9F04F106009B44FF07B
:10036000500080F31188BFF34F8FBFF36F8F0AF0F7
:1003700041FA4FF0000080F3118809BC1968086841
:10038000B0E8F04F1EF0100F08BFB0EC108A80F3F9
:100390000988BFF36F8F704720010024EFF30580B9
:1003A000704700000648804706480047FEE7FEE722
:1003B000FEE7FEE7FEE7FEE7FEE7FEE7FEE7FEE715
:1003C0005D5C0008CD0200082DE9F05F05460020C5
:1003D00092469B4688460646814640241BE02846B6
:1003E00041464746224600F0BAF853465A46C01ADC
:1003F000914110D311461846224600F0A1F82D1A5B
:1004000067EB01084F4622460120002100F098F8D2
:1004100017EB00094E41201EA4F10104DFDC484621
:1004200031462A464346BDE8F09F40EA01039B0758
:1004300003D009E008C9121F08C0042AFAD203E059
:1004400011F8013B00F8013B521EF9D27047D2B2BD
:1004500001E000F8012B491EFBD270470022F6E7AD
:1004600010B513460A4604461946FFF7F0FF20462A
:1004700010BD30B505462A460B4612F8010B13F89D
:10048000014B08B1A042F8D01CB1002802D06D1C6D
:10049000F1E7284630BD10B5044604E00B7800F8BB
:1004A000013B03B1491C521EF8D2204610BD421C2C
:1004B00010F8011B0029FBD1801A704710B50446C3
:1004C00000E0401C0378002BFBD100E0401C521ED2
:1004D00004D311F8013B0370002BF7D10021017008
:1004E000204610BD034611F8012B00F8012B002A0D
:1004F000F9D11846704730B505460020034600E0A4
:100500005B1C934205D2EC5CC85C201A01D1002C24
:10051000F6D130BD30B50B46014600202022012423
:1005200009E021FA02F59D4205D303FA02F5491BC1
:1005300004FA02F52844151EA2F10102F1DC30BDD7
:10054000202A04DB203A00FA02F100207047914093
:10055000C2F1200320FA03F3194390407047202A88
:1005600004DB203A21FA02F00021704721FA02F35D
:10057000D040C2F1200291400843194670472DE94E
:10058000FE4F804681EA0300C00F0C46009021F028
:10059000004123F00045B8EB0200A94105D24046D6
:1005A000214690461C460B46024623F0004010436D
:1005B00047D0270DC7F30A00C3F30A510290401A2F
:1005C000019040286BDAC3F3130040F4801B0098BD
:1005D000924620B10023D2EB030A63EB0B0B019888
:1005E0005946C0F140025046FFF7AAFF06460D46A5
:1005F00050465946019A00F08DF910EB0800614110
:10060000002487EA115284EAE7731A4340D0009A23
:1006100062B3019A012A4FEA075215DC001B61EB15
:1006200002014FF0004202EA0752CDE90042001CED
:1006300041F5801132462B4600F08DF903B0BDE83C
:10064000F08F40462146F9E7001B61EB0201001CD8
:1006500041F5801300185B412018A2F5001747EB05
:10066000030140EAD570B6196D4111E06D084FEAFB
:10067000360645EAC0754FEA0752001B61EB0201DE
:10068000001C41F5801149084FEA30000019514122
:1006900032462B4603B0BDE8F04F00F04DB900984C
:1006A000012240000023D0EB020263EBE0730098CC
:1006B00021464FEAE074B8EB000061EB0401E9E782
:1006C00083F000435BE781F0004158E72DE9FE4FDE
:1006D00081EA030404F0004421F0004100944FF04B
:1006E000000B23F0004350EA01045ED052EA0304F9
:1006F0005BD0C3F30A54C1F30A552C44A4F2F3347B
:100700000194A0FB0254C1F3130141F48011C3F31F
:10071000130343F4801301FB024400FB034E840ADD
:10072000970A44EA815447EA8357A4FB0768029575
:100730008D0A05FB07854FEA932C04FB0C54270513
:10074000029D4FEA065847EA1637B5EB08056EEBEF
:10075000070C870E920E47EA811742EA8312A7FB25
:100760000201B6EB0B0164EB00042B0D43EA0C33E2
:100770005E1844EB1C50DA465146E7FB0201C5F314
:1007800013044FEA0B3343EA14534FEA0432019C3B
:1007900043EA0603A4F10C040294009CCDE900B4E2
:1007A00000F0D9F803B0BDE8F08F00200146F9E76A
:1007B0002DE9F04D81EA030404F0004B21F00045DF
:1007C00014464FF0000A23F0004150EA050220D001
:1007D00054EA01021DD0C5F30A570246C5F31303BC
:1007E000C1F31300C1F30A5640F4801543F480139B
:1007F000A7EB0608101BD64608F2FD3873EB050080
:1008000002D308F1010801E092185B41B8F1000F32
:1008100003DA00200146BDE8F08D00204FF480117E
:10082000064684460EE0171B73EB050705D3121B23
:1008300063EB050306434CEA010C49084FEA30001C
:1008400092185B4150EA0107EDD152EA030012D041
:1008500082EA040083EA0501084305D0101BAB417E
:1008600006D20122002306E000224FF0004302E0FE
:100870006FF0010253101AEB06004CEB085110EB1D
:100880000A0041EB0B01BDE8F04D00F055B8C1F393
:100890000A52C1F3130140F2FF3341F480119A422E
:1008A00002DA00200146704740F233439A42A2F236
:1008B000334202DC5242FFF752BEFFF741BE000056
:1008C00030B5041E71F1000404DB4FF000444042D7
:1008D00064EB0101141E73F1000405DB1C464FF0AC
:1008E0000043524263EB0403994208BF904230BD7B
:1008F000064C074D06E0E06840F0010394E807006D
:1009000098471034AC42F6D3FFF7E4FCD4B90008A2
:10091000F4B90008202A06DBCB17203A41FA02F08E
:1009200043EAE07306E041FA02F3D040C2F120024C
:10093000914008431946704710B5141E73F1000426
:1009400008DA401C41F1000192185B411A4301D1C1
:1009500020F0010010BD2DE9F04D92469B4611B1EB
:10096000B1FA81F202E0B0FA80F220329046FFF74D
:10097000E7FD04460F4640EA0A0041EA0B015346F0
:100980005A46084313D0114653EA010019D0C8F162
:1009900040025046FFF7E3FD05460E4650465946D5
:1009A0004246FFF7CDFD084305D0012004E0204674
:1009B0003946BDE8F08D0020054346EAE0762C4339
:1009C00037430A986305E40AA0EB08000022FD0AF9
:1009D00044EA47540A3002D500200146E9E7010500
:1009E00010196941DDE9084500196941BDE8F04D7C
:1009F000A2E770B58C1810F8015B15F0070301D160
:100A000010F8013B2A1106D110F8012B03E010F871
:100A1000016B01F8016B5B1EF9D12B0705D4002394
:100A2000521E0DD401F8013BFAE710F8013BCB1A36
:100A3000921C03E013F8015B01F8015B521EF9D52B
:100A4000A142D8D3002070BDFEE7002070470020EF
:100A50007047000005490022054810B505F0F2FF77
:100A60000449034805F0E1FF002010BD50100024A8
:100A700074030024500800240146044810B505F012
:100A8000D4FF024805F0AAFF002010BD7403002423
:100A900000207047014800F0CFBD0000B0020024E4
:100AA000294A016891423AD0274A1832914236D0F9
:100AB000254A3032914232D0234A483291422ED0D8
:100AC000214A603291422AD01F4A7832914226D080
:100AD0001D4A9032914222D01B4AA83291421ED028
:100AE0001A4A91421BD0194A1832914217D0174A1C
:100AF0003032914213D0154A483291420FD0134AF6
:100B0000603291420BD0114A7832914207D00F4A9D
:100B10009032914203D00D4AA832914211D1CAB20B
:100B20001823103AB2FBF3F26FF30901032A02F023
:100B30000703074AD25CC26500D9091D81650846D2
:100B4000704721F0FF01F9E7100002401004024055
:100B5000A8B4000830B5224A012301689142CAB204
:100B60001BD01F4C1434A14217D01D4C2834A14275
:100B700013D01B4C3C34A1420FD0194C5034A1422D
:100B80000BD0174C6434A14207D0154C7834A142E5
:100B900003D0134C8C34A1420CD11421114C083ACF
:100BA000B2FBF1F10F4A803201F01F0504EB810125
:100BB000AB4010E00C4D1824103A0D44B2FBF4F198
:100BC000A82D00D80831094A01F01F0402EB810169
:100BD000064AA3408032603080E80E0030BD00003D
:100BE0000854025800580258F0FBFDBF00080240AC
:100BF00010B50279531E072B2DD8174C0168A1425E
:100C00001BD0154C1434A14217D0134C2834A142E8
:100C100013D0114C3C34A1420FD00F4C5034A142A0
:100C20000BD00D4C6434A14207D00B4C7834A14258
:100C300003D0094C8C34A14203D10849074C4431FC
:100C400002E00749064C443104EB8202C0E91B2153
:100C500001219940416710BD08540258FC580258C0
:100C6000FC08024010B583694FF0C074826A0146E7
:100C7000002053B1B3F5005F15D072B1012A0CD03A
:100C8000022A0AD0032A09D104E01AB1012A06D0A7
:100C9000022A03D1C96AC90100D5012010BDC96A61
:100CA000A142FAD010BD002AF7D0012AF2D0022AC0
:100CB000F3D0032AF3D010BD2DE9F04F804E804FC2
:100CC000DFF8FC911836DFF8F8A148370468856D25
:100CD0000AF1300ADFF8ECB14C45DFF8ECC1DFF87F
:100CE000ECE16DD0B4426BD0544569D0BC4267D0C2
:100CF000DFF8D081A8F11808444561D05C455FD089
:100D000064455DD074455BD0DFF8C481444557D05D
:100D1000DFF8BC8108F11808444551D0DFF8B081F4
:100D200008F1300844454BD0DFF8A48108F14808A9
:100D3000444545D0DFF8988108F1600844453FD02C
:100D4000DFF88C8108F17808444539D0DFF88081DC
:100D500008F19008444533D0DFF8748108F1A80801
:100D600044452DD0DFF86C81444529D0DFF86481FB
:100D700008F11408444523D0DFF8588108F1280809
:100D800044451DD0DFF84C8108F13C08444517D09C
:100D9000DFF8408108F15008444511D0DFF8348174
:100DA00008F1640844450BD0DFF8288108F1780881
:100DB000444505D0DFF81C8108F18C08444509D171
:100DC000D0E91948C4F80480C46E1CB1D0E91C48AD
:100DD000C4F8048004684C452ED0B4422CD054454D
:100DE0002AD0BC4228D0374E183EB44224D05C45AD
:100DF00022D0644520D074451ED0354EB4421BD05D
:100E0000334E1836B44217D0314E3036B44213D078
:100E10002F4E4836B4420FD02D4E6036B4420BD020
:100E20002B4E7836B44207D0294E9036B44203D0C8
:100E3000274EA836B44215D190F85C603F2406F0E6
:100E40001F06B440AC600468256825F48025256041
:100E50002EE09A600068C160BDE8F08F996000687C
:100E6000C260F9E71B4EB4421BD01A4E1436B4428E
:100E700017D0184E2836B44213D0164E3C36B44222
:100E80000FD0144E5036B4420BD0124E6436B442DA
:100E900007D0104E7836B44203D00E4E8C36B44292
:100EA000DAD190F85C60012406F01F06B4406C6053
:100EB000046863608368402B0368CFD1C9E70000F2
:100EC0001000024088000240A0000240B80002402A
:100ED0001004024008540258704772B6FEE7000042
:100EE0000048704720A1002430B5002313601C4641
:100EF00019E0401C0578C5B1202DFAD110F8015F2A
:100F00009DB1202DFAD0641C8C420CD1034611688F
:100F1000491C116010F8011F09B12029F7D1106890
:100F200018B9002301E08C42E4D3184630BD00001C
:100F30002DE9F05F2F4C00278046924601258B4615
:100F40006068B0BB04F10C0012E00068066830462F
:100F5000FFF7ADFA8146024631464046FFF7CBFA2D
:100F600020B918F80900202806D028B16068406828
:100F700060600028E9D133E0D4F804C0DCF8000058
:100F800090F90C60002E10DB00204146024603E081
:100F9000202B18D00022491C0B78002BF8D10AB165
:100FA000401E40B2B04200D00025BCF1000F17D067
:100FB0007DB160684246514600688368584698474C
:100FC00005000BD012E0002AE5D10122401C40B2FE
:100FD000E1E7094952465846FFF75DFA676005E0C8
:100FE000064952465846FFF756FA00252846BDE8FE
:100FF000F09F000094010024C8B6000820B7000844
:1010000070B5050011D0082008F02CFF040014D0A2
:1010100009F0B6F90D480021C4E9005101684C609F
:10102000046009F0CDF9012070BD502080F31188D3
:10103000BFF34F8FBFF36F8FFEE7502080F311880F
:10104000BFF34F8FBFF36F8FFEE7000094010024C2
:101050002DE9F84F044601F0AFFA00903CB194F846
:101060003500022806D0802161650020E4E00120DF
:10107000BDE8F88FC74DC74EC649183520683036D1
:10108000DFF81483DFF814938842DFF814A3DFF845
:1010900014B32ED0A8422CD0B0422AD0404528D03C
:1010A000484526D0504524D0584522D0BD4A183254
:1010B00090421ED0BC4A90421BD0BB4A183290428C
:1010C00017D0B94A3032904213D0B74A48329042D2
:1010D0000FD0B54A603290420BD0B34A783290427A
:1010E00007D0B14A9032904203D0AF4AA832904222
:1010F00009D1026822F01E0202602068426922F0D3
:101100008002426103E0026822F00E02026027685A
:101110008F4238464DD0A8424BD0B04249D04045CE
:1011200047D0484545D0504543D0584541D09D4AC9
:10113000183290423DD09C4A90423AD09A4A183296
:10114000904236D0984A3032904232D0964A483255
:1011500090422ED0944A603290422AD0924A7832FD
:10116000904226D0904A9032904222D08E4AA832A5
:1011700090421ED08D4A90421BD08C4A143290422D
:1011800017D08A4A2832904213D0884A3C32904283
:101190000FD0864A503290420BD0844A643290423B
:1011A00007D0824A7832904203D0804A8C329742EC
:1011B00004D1206E026822F48072026075492068B2
:1011C000884228D0A84226D0B04224D0404522D020
:1011D000484520D050451ED058451CD07149183183
:1011E000884218D07049884215D06F49183188421A
:1011F00011D06D49303188420DD06B494831884259
:1012000009D069496031884205D067497831884200
:1012100001D065499031016821F0010101600EE0C3
:1012200001F0CAF90099401A052808D92022626500
:101230000321002084F8351084F8340017E738685B
:10124000C007EDD1534A0121206890422ED0A84218
:101250002CD0B0422AD0404528D0484526D0504511
:1012600024D0584522D04F4B183398421ED04E4BB5
:1012700098421BD04C4B1833984217D04A4B30330E
:10128000984213D0484B483398420FD0464B6033B6
:1012900098420BD0444B7833984207D0424B90335E
:1012A000984203D0404BA833984208D194F85C7020
:1012B0003F23A06D07F01F07BB40836007E094F851
:1012C0005C30A06D03F01F0301FA03F34360206854
:1012D00090424DD0A8424BD0B04249D0404547D073
:1012E000484545D0504543D0584541D02D4A183245
:1012F00090423DD02C4A90423AD02B4A183290422C
:1013000036D0294A3032904232D0274A4832904271
:101310002ED0254A603290422AD0234A7832904219
:1013200026D0214A9032904222D01F4AA8329042C1
:101330001ED01E4A90421BD01C4A1432904217D035
:101340001A4A2832904213D0184A3C3290420FD0A9
:10135000164A503290420BD0144A6432904207D061
:10136000124A7832904203D0104A8C3290420BD10C
:10137000D4E919024260E06E30B1026822F4807252
:101380000260D4E91C024260002084F8351084F821
:1013900034006DE610000240580002407000024028
:1013A00088000240A0000240100402400854025885
:1013B0002DE9F05F28B190F83510022904D0802182
:1013C00041650120BDE8F09F904C904B0168183CAE
:1013D00018338E4ADFF83C92A1428D4CDFF838E298
:1013E0008E4FDFF83CB2DFF83CA28F4D8F4E31D0EC
:1013F00091422FD099422DD0A1422BD0494529D0DE
:10140000714527D0B94225D0DFF810C20CF1180C75
:1014100061451FD0DFF808C2ACF1600C614519D0FE
:10142000DFF8FCC1ACF1480C614513D0DFF8F0C126
:10143000ACF1300C61450DD0DFF8E4C1ACF1180C13
:10144000614507D0594505D0514503D0A94201D087
:10145000B1422CD1DFF8B4C14FF0040880F83580D8
:10146000ACF1180C61451DD091421BD0994219D0A6
:10147000A14217D0494515D0714513D0B94211D0BA
:101480006648183081420DD065486038814209D0E5
:1014900063484838814205D061483038814201D0E4
:1014A0005F481838086820F001000860ABE0D1F808
:1014B00000C02CF00E08DFF854C1C1F80080ACF178
:1014C000180C0168614527D0914225D0994223D05C
:1014D000A14221D049451FD071451DD0B9421BD032
:1014E000DFF838C10CF1180C614515D0DFF830C1B8
:1014F000ACF1600C61450FD0DFF824C1ACF1480CB1
:10150000614509D0DFF818C1ACF1300C614503D05A
:10151000DFF80CC1ACF1180CD1F800C02CF0010CB4
:10152000C1F800C0DFF8E4804FF0010C0168A8F1B9
:101530001808414546D0914244D0994242D0A14238
:1015400040D049453ED071453CD0B9423AD0334AAB
:101550001832914236D0324A603A914232D0304A03
:10156000483A91422ED02E4A303A91422AD02C4A03
:10157000183A914226D0594524D0514522D0A9424B
:1015800020D0B1421ED02A4A91421BD0284A1432A0
:10159000914217D0264A2832914213D0244A3C3235
:1015A00091420FD0224A503291420BD0204A6432ED
:1015B000914207D01E4A7832914203D01C4A8C32A5
:1015C000914218D1016E0A6822F480720A6090F884
:1015D0005C20816D02F01F020CFA02F24A60D0E931
:1015E00019124A60C16E31B10A6822F480720A6031
:1015F000D0E91C124A600022016D80F835C080F8E5
:10160000342001B188470020DCE6000028000240B9
:10161000580002407000024088000240A0000240D2
:101620007004024088040240A0040240B804024052
:1016300008540258406D70472DE9FC5F0446F74E90
:101640000020DFF8D88300904FF41652F44808F1D8
:101650001808A56DDFF8C493DFF8C0A3016809F18D
:10166000300920680AF1480AB1FBF2F1B042019159
:101670002F68D5F800C0DFF8ACB335D041468842BA
:1016800032D0484530D050452ED058452CD0E54971
:101690001831884228D0E3493031884224D0E149CA
:1016A0004831884220D0E04988421DD0DE491831B7
:1016B000884219D0DC493031884215D0DA494831A6
:1016C000884211D0DFF860E30EF1600E70450BD058
:1016D000D54A7832904207D0D34B9033984203D00A
:1016E000D149A83188427DD194F85C20082102F0CC
:1016F0001F0201FA02F23A424AD0B04232D04045CB
:1017000030D048452ED050452CD058452AD0C54A17
:101710001832904226D0C34A3032904222D0C14A79
:10172000483290421ED0C04A90421BD0BE4A183266
:10173000904217D0BC4A3032904213D0BA4A483255
:1017400090420FD0B84A603290420BD0B64A7832FD
:10175000904207D0B44A9032904203D0B24AA832A5
:10176000904203D1026802F0040202E0026802F033
:1017700008026AB1026822F00402026094F85C0078
:1017800000F01F008140A960606D40F001006065BD
:1017900094F85C00012100F01F008140394240D0E4
:1017A0002068B04234D0404532D0484530D0504512
:1017B0002ED058452CD09B4A1832904228D0994AB6
:1017C0003032904224D0974A4832904220D0964AF4
:1017D00090421DD0944A1832904219D0924A303229
:1017E000904200E0AFE113D08F4A483290420FD0D0
:1017F0008D4A603290420BD08B4A7832904207D0AB
:10180000894A9032904203D0874AA83290427DD1D3
:10181000406910F0800F04D0A960606D40F00200B4
:10182000606594F85C00042100F01F00814039429B
:101830003ED02068B04232D0404530D048452ED00E
:1018400050452CD058452AD0764A1832904226D09E
:10185000744A3032904222D0724A483290421ED0AE
:10186000714A90421BD0704A1832904217D06E4A8B
:101870003032904213D06C4A483290420FD06A4ABC
:10188000603290420BD0684A7832904207D0664A64
:101890009032904203D0644AA83290424ED1006800
:1018A00010F0020F04D0A960606D40F00400606584
:1018B00094F85C00102100F01F008140394258D09C
:1018C0002068B04234D0404532D0484530D05045F1
:1018D0002ED058452CD0534A1832904228D0514A25
:1018E0003032904224D04F4A4832904220D04E4A63
:1018F00090421DD04C4A1832904219D04A4A303298
:10190000904215D0484A4832904200E014E00FD08F
:10191000454A603290420BD0434A7832904207D019
:10192000414A9032904203D03F4AA832904207D1B8
:10193000006800F0080006E0006872E70068B7E79A
:10194000006800F00400A0B1A960206801684903A4
:1019500004D50068000308D5A16C07E00168C9053B
:1019600003D4016821F008010160216C09B120460F
:10197000884794F85C00202100F01F008140394224
:1019800079D02068B04232D0404530D048452ED082
:1019900050452CD058452AD0224A1832904226D0A1
:1019A000204A3032904222D01E4A483290421ED005
:1019B0001D4A90421BD01C4A1832904217D01A4A36
:1019C0003032904213D0184A483290420FD0164A13
:1019D000603290420BD0144A7832904207D0124ABB
:1019E0009032904203D0104AA832904203D100684E
:1019F00000F0100002E0006800F00200B0B3A9603F
:101A000094F835000428206801680FD049037ED57A
:101A1000006800032BD4616C2AE000001000024033
:101A200084000024700002401004024021F01601DE
:101A300001602068416921F080014161206C08B992
:101A4000A06C20B12068016821F00801016094F8C1
:101A50005C303F21012003F01F0300229940A96060
:101A600084F8350084F83420216D65E003E0E16BF3
:101A700009B120468847606D00287DD0606DC007A1
:101A800059D02068042184F83510B0422BD040454D
:101A900029D0484527D0504525D0584523D09D49C9
:101AA000884220D09B49183188421CD09949303156
:101AB000884218D09849884215D0974918318842F1
:101AC00011D09549303188420DD093494831884230
:101AD00009D091496031884205D08F4978318842D8
:101AE00001D08D499031016821F001010160206829
:101AF0000099019A491C0091914202D80168C907D6
:101B0000F6D10068C00710D003200FE0FFE701689E
:101B1000C905ACD403680121002223F0100303603F
:101B200084F8351084F83420A1E7012084F83500CA
:101B3000002084F83400E16C00291DD002B020465A
:101B4000BDE8F05F0847754988421DD073491431DC
:101B5000884219D071492831884215D06F493C31EB
:101B6000884211D06D49503188420DD06B496431A3
:101B7000884209D0694900E084E07831884203D086
:101B800066498C3188427DD194F85C8004270168D5
:101B900008F01F0807FA08F717EA0C0F009746D05D
:101BA0004F0744D500980F04686003D5C8033CD4A0
:101BB000A16CC1E7880638D42068B0422DD05549C1
:101BC0006039884229D0484527D0504525D058450E
:101BD00023D05049884220D04E49183188421CD029
:101BE0004C493031884218D04B49884215D04A4977
:101BF0001831884211D04849303188420DD04649C9
:101C00004831884209D0704507D0904205D09842AB
:101C100003D04149A831884203D1016821F008016D
:101C200002E0016821F004010160216C84E70227D1
:101C300007FA08F717EA0C0F00974ED08F074CD51C
:101C400000980F04686003D5C80344D4616C73E73F
:101C5000880640D42068B0422FD02E49603988428F
:101C60002BD0484529D0504527D0584525D0294963
:101C7000884222D02749183188421ED02549303168
:101C8000884200E044E018D02349884215D0224918
:101C90001831884211D02049303188420DD01E4978
:101CA0004831884209D0704507D0904205D098420B
:101CB00003D01949A831884203D1016821F01401E9
:101CC00002E0016821F00A010160012184F8351069
:101CD000002084F83400E16B2EE7082202FA08F2B3
:101CE00012EA0C0F14D0090712D5016821F00E0179
:101CF000016094F85C100120002201F01F0100FA3D
:101D000001F16960606584F8350084F8342012E7D9
:101D1000BDE8FC9F880002401004024008540258AD
:101D20002DE9F05F044600F047FC002C07467DD00B
:101D3000E24E022120684FF00308DFF884934FF051
:101D40000005DFF880A3B042DFF87CB334D0DB4A73
:101D50001832904230D048452ED050452CD05845AE
:101D60002AD0D94A1832904226D0D74A30329042EF
:101D700022D0D54A483290421ED0D44A90421BD03D
:101D8000D24A1832904217D0D04A3032904213D003
:101D9000CE4A483290420FD0CC4A603290420BD0AB
:101DA000CA4A7832904207D0C84A9032904203D053
:101DB000C64AA83290427DD184F83510B04284F8EA
:101DC00034502ED0BD49183188422AD0484528D0F9
:101DD000504526D0584524D0BB491831884220D0E0
:101DE000B949303188421CD0B7494831884218D0AF
:101DF000B649884215D0B5491831884211D0B34947
:101E0000303188420DD0B1494831884209D0AF49BC
:101E10006031884205D0AD497831884201D0AB4964
:101E20009031016821F00101016008E025E100BF67
:101E300000F0C2FBC01B052801D920211AE120684F
:101E40000068C007F4D1D4E90203216810341843B4
:101E50008E4694E88410D4E9033809683A43104365
:101E60009B4A40EA0C00676918431140103C40EA65
:101E70000800042F40EA010003D1D4E90B121143FA
:101E800008436168A1F12902052A0BD9163A032AF1
:101E900008D9083A012A05D9083A032A02D974391F
:101EA000032901D840F48010CEF800002068676A4A
:101EB000406900E020E0042F20F0070047EA000717
:101EC0000DD1D4E90A01074349B12046FEF7CAFE05
:101ED00028B140206065012184F83510CDE02068EC
:101EE00047612046FEF7DCFD94F85C203F2102F0BC
:101EF0001F029140816055E0764A90421BD0754B9D
:101F00001433984217D0734B2833984213D0714B37
:101F10003C3398420FD06F4B503398420BD06D4BEF
:101F20006433984207D06B4B7833984203D0694BA7
:101F30008C3398427ED184F8351084F83450664B47
:101F40000168A26801EA030E402A74D0802A73D087
:101F50005FF00002D4E90378D4E9053142EAD70200
:101F600042EAD8085B4AD4E9077C48EAD30848EA41
:101F7000D10141EAD701524241EA1C11142341EA3E
:101F80000E01016020681044B0FBF3F08000E065B2
:101F90002046FEF785FD94F85C20012102F01F0227
:101FA000914041602068B04257D04449183188427E
:101FB00053D0484551D050454FD058454DD0424957
:101FC0001831884249D040493031884245D03E4995
:101FD0004831884241D03D4988423ED03B49183182
:101FE00088423AD039493031884236D03749483171
:101FF000884232D03549603188422ED03349783119
:1020000088422AD031499031884226D02F49A831C0
:10201000884222D02F4988421FD02E49143188424D
:102020001BD02C492831884217D02A493C3188429C
:1020300013D002E01DE017E018E026495031884235
:102040000BD024496431884207D022497831884234
:1020500003D020498C31884229D12046FEF77AFDF1
:10206000A06880280CD00CE0102273E74FF4804267
:1020700070E74021616584F835800120BDE8F09F5C
:102080006560216E20790860D4E9190141606068BB
:10209000401E072808D82046FEF7AAFDE06E05601E
:1020A000D4E91C01416002E0E5662567656701200F
:1020B000656584F835000020E0E70000100002406C
:1020C00040000240580002407000024010040240EC
:1020D0003F8010FE085402580F00FEFF2DE9F84F14
:1020E00004008C464FF00000009014D094F83400A7
:1020F000012812D094F835500120002184F83400D2
:10210000012D0CD0C00260650120009084F83410CD
:102110000098BDE8F88F0120FBE70220F9E78C4D1D
:102120000226206884F83560A8428A4D61658A4E8F
:102130008A4FDFF82C82DFF82C92DFF82CA2DFF830
:102140002CB226D0A84224D0B04222D0B84220D00F
:1021500040451ED048451CD050451AD0584518D08F
:102160008349884215D082491831884211D080496C
:10217000303188420DD07E494831884209D07C49AF
:102180006031884205D07A497831884201D0784957
:102190009031016821F00101016061462046FEF79F
:1021A0008BFD6B49206888422CD0A8422AD0B042CF
:1021B00028D0B84226D0404524D0484522D05045AA
:1021C00020D058451ED06A4A90421BD0684A183227
:1021D000904217D0664A3032904213D0644A483257
:1021E00090420FD0624A603290420BD0604A7832FF
:1021F000904207D05E4A9032904203D05C4AA832A7
:1022000090420CD1026822F01E0242F016020260D7
:10221000206C88B12068026842F008020BE0026876
:1022200022F00E0242F00A020260206C20B1206807
:10223000026842F004020260206888424BD0A84243
:1022400049D0B04247D0B84245D0404543D0484538
:1022500041D050453FD058453DD0454A90423AD0B4
:10226000434A1832904236D0414A3032904232D0FE
:102270003F4A483290422ED03D4A603290422AD0A6
:102280003B4A7832904226D0394A9032904222D04E
:10229000374AA83290421ED0364A90421BD0354A67
:1022A0001432904217D0334A2832904213D0314A28
:1022B0003C3290420FD02F4A503290420BD02D4AE0
:1022C0006432904207D02B4A7832904203D0294A98
:1022D0008C3290420DD1206E0268D20303D5026881
:1022E00042F480720260E06E18B1026842F48072BB
:1022F00002602068884226D0A84224D0B04222D072
:10230000B84220D040451ED048451CD050451AD078
:10231000584518D01649884215D0154918318842B9
:1023200011D01349303188420DD0114948318842CB
:1023300009D00F496031884205D00D497831884273
:1023400001D00B499031016841F001010160DFE6E5
:1023500010000240280002404000024058000240A5
:102360007000024088000240A0000240B800024015
:10237000100402400854025870B5044600F01CF9DD
:102380000546601C02D004480078044400F014F9AB
:10239000401BA042FAD370BD780000242DE9F84F0D
:1023A00003247A4D00234FF001094FF0B04B4FF05A
:1023B0000F0AE4E009FA03F6324078D00F7907F00B
:1023C0000307012F01D0022F1AD187684FEA430E6D
:1023D000D1F80CC004FA0EF827EA08070CFA0EFC34
:1023E0004CEA070CC0F808C0476891F804C0B7432E
:1023F000CCF3001C0CFA03FC4CEA070CC0F804C038
:102400000E79F643B6070BD0C6684FEA43088F68CB
:1024100004FA08FC26EA0C0607FA08F73743C760F7
:102420000E7906F00306022E12D1DE080F694FEA7C
:10243000437C00EB8606B646366A4FEADC6C0AFA45
:102440000CF807FA0CF726EA08063743CEF8207096
:102450000F7906684FEA430807F0030704FA08FCFF
:1024600007FA08F726EA0C06374307604E6816F4A9
:10247000403F1CD0464E376847F002073760366849
:102480009F0706F00206009623F0030606F1B04609
:10249000B6463F0FD6F80864DFF8F8800AFA07FC62
:1024A000404526EA0C0603D14FF0000C3AE065E007
:1024B000DFF8E4C0604502D14FF0010C32E0DFF8F4
:1024C000DCC0604502D14FF0020C2BE0DFF8D0C039
:1024D000604502D14FF0030C24E0DFF8C8C060452E
:1024E00002D14FF0040C1DE0DFF8BCC0604502D102
:1024F0004FF0050C16E0DFF8B4C0604502D14FF094
:10250000060C0FE0DFF8A8C0604502D14FF0070CC1
:1025100008E0DFF8A0C0604502D14FF0090C01E0EF
:102520004FF00A0C0CFA07FC4CEA060CCEF808C473
:102530004F68DBF80060FF0226EA020600D516436A
:102540005F46CBF80060D1F804C0DBF804605FEAB6
:102550008C2C26EA020600D516437E606E684F6812
:1025600026EA0206BF0300D516436E602E684F6848
:1025700026EA0206FF0300D516432E605B1C0A689C
:1025800032FA03F67FF416AFBDE8F88F80000058EA
:10259000F44402580000025800040258000802588F
:1025A000000C02580010025800140258001802587B
:1025B000001C02580024025801488068704700003F
:1025C00078000024024881680278114481607047D5
:1025D00078000024032010B500F0ACF801F0D0FD25
:1025E0000F4A104914681368C4F3032203F00F0361
:1025F0008A5CC95C02F01F0201F01F01D0400A4A48
:1026000020FA01F11160094908600F2000F010F86C
:1026100008B1012010BD00F04DF8002010BD0000F1
:1026200018440258D8B4000888000024840000240C
:1026300010B5102804468AB02AD20022014676201E
:1026400000F058F8762000F047F815480460154867
:10265000016841F480210160006808A900F480202D
:102660000990684601F018FD01F078FD0E49400020
:1026700000220E4CB0FBF1F10D4840F2E73304604C
:10268000C0E90332491EC0E9011202F042FA10B15A
:1026900001200AB010BD064802F06EFAF9E700000A
:1026A0007C000024F044025840420F0000480140E2
:1026B00028030024074882B0016841F0020101604C
:1026C000006800220F2100F002000090901E02B06E
:1026D00000F010B8F4440258002809DB410900F06A
:1026E0001F028900012001F1E0219040C1F80001A2
:1026F000704700000E4BF0B41B680D46C3F3022375
:10270000C3F10706042E00D90426191D072901D29A
:10271000002300E0DB1E012404FA06F19C40491E60
:102720002940641E994014402143F0BC05F068BD67
:102730000CED00E0064900F0070210B54FF6FF046B
:102740000868044B204040EA02201843086010BD8E
:102750000CED00E00000FA05BFF34F8F0548064A74
:10276000016801F4E06111430160BFF34F8F00BFC6
:10277000FDE700000CED00E00400FA05016801230C
:10278000C0F8D834002280F8CC248869044A40F08C
:1027900000608861486D1043486500207047000064
:1027A0000300001070470068416200207047F0B5D8
:1027B00003685D6A39B19F6A4C1E00204FF482762F
:1027C00005EB17450BE045EA0240986210E0471C14
:1027D00006EB800053F800C0F8B205EB1C45A042A0
:1027E000F5D34FF4807000EB810045EA02421A50A5
:1027F0000020F0BDD0F8E00404F009BC01EBC102F8
:1028000000EB8202D0F8E004126A04F05CBB01EB3A
:10281000C10200EB8202D0F8E004D2F8602204F09A
:10282000AEBBD0F8E00404F0F4BB0A0601F00F01DF
:1028300001EBC10100EB810101D5143101E001F58B
:102840001571006805F0DEBA01F00F020B0670B5D5
:1028500002EBC20104464FF001004FF0000504EB0B
:10286000810102D54875143103E081F8555201F514
:1028700015710A7094F89424012A08D084F89404FD
:10288000206804F0E1FF002084F8945470BD022019
:1028900070BD70B50279044601F00F00904201D975
:1028A000012070BD01F00F024FF000050B0602EB96
:1028B000C2014FF0010204EB810102D54A751431C7
:1028C00003E081F8555201F515718D70087094F888
:1028D0009404012808D084F89424206805F01EF997
:1028E000002084F8945470BD022070BD01F00F01E7
:1028F00001EBC10100EB8100D0F8680270472DE9BF
:10290000F04101F00F0604460D064FF0010006EB02
:10291000C6014FF0000504EB810102D54875143162
:1029200003E081F8555201F515714F788A600B71FB
:102930000E7007B14E83022B00D14D7194F8942490
:10294000012A09D084F89404206804F0C5FE2846C2
:1029500084F89454BDE8F0810220FBE770B501F0E3
:102960000F05002405EBC50100EB810101F518718D
:1029700081E81C0001F80B4C01F80C5D8379012BF8
:1029800000D1CA618279006805F020F9002070BD8D
:1029900070B50D460179044605F00F00884201D953
:1029A000012070BD29064FF000064FF0010206D548
:1029B00000EBC00104EB81014A75143107E005EB1F
:1029C000C50104EB810181F8556201F515718A702A
:1029D000087094F89404012807D084F8942420689F
:1029E00005F0C8F8280702D007E0022070BDA179E1
:1029F00004F29C42206805F065F8002084F8946495
:102A000070BD70B501F00F04002504EBC401012670
:102A100000EB8101203181E82C0001F80B6C01F8FA
:102A20000C4D8379012B00D1CA618279006805F0D1
:102A3000CDF8002070BD00002DE9FC5F056804465C
:102A4000284605F07BFA00287ED1206805F0A2FA1E
:102A5000002879D0D5F80808C0F30D20C4F8D404B4
:102A6000206805F097FA800704D52068416901F0D5
:102A700002014161206805F08DFAC10604F29C4014
:102A8000009035D52068816921F0100181612F6A9D
:102A900007F00F01C7F3434001EBC101022804EB2B
:102AA000810606F5157602D0062812D01BE047F6FF
:102AB000F070074217D0C7F30A12F168174628468C
:102AC00005F06CFA7169F068394471613844F0605E
:102AD00009E000990822284605F060FA7069C7F3FA
:102AE0000A11084470612068816941F01001816118
:102AF000206805F04FFA00034FF0080B4FF0000A72
:102B00004FF001097CD52068002605F022FA07461F
:102B100074E0F80770D02068F1B205F033FA80460F
:102B2000C00707D005EB4611C1F8089B3146204687
:102B300002F0E8FD5FEA087024D505EB4611C1F804
:102B400008BBFA49206800E03EE2026C00EB461048
:102B500001928A42D0F8081B05D9090403D54FF425
:102B60000041C0F8081B204600F001FBEF49019826
:102B7000884207D9A079012804D120680121009A50
:102B800004F0A0FF5FEAC86004D505EB46111020F1
:102B9000C1F8080B5FEA88701DD56869000605D585
:102BA000D5F8040840F48061C5F8041806EBC600A7
:102BB00004EB800090F8571200F51570012905D13B
:102BC00080F803A02046F1B200F004FA05EB4611AC
:102BD0000220C1F8080B5FEA886004D505EB4611B6
:102BE0002020C1F8080B5FEA884005D505EB4611A7
:102BF0004FF40050C1F8080B7F08761C002F88D1D5
:102C0000206805F0C7F940036ED5206805F09AF9F1
:102C10000026074666E0F80762D02068F1B205F0AA
:102C20009FF98046C00723D0D5F8342806F00F015D
:102C300005EB461309FA01F18A43C5F83428C3F8B5
:102C40000899A07901280FD106EBC60004EB80009B
:102C5000D0E907211144016236B9606A20B92068C1
:102C60000121009A04F02EFF2046F1B2FFF7C6FDC5
:102C70005FEA087003D505EB4611C1F808B95FEAB1
:102C8000C86004D505EB46111020C1F808095FEAB9
:102C9000486004D505EB46114020C1F808095FEAF9
:102CA000887016D53146284605F01DF906EBC6009A
:102CB00004EB8000C17D1430012905D180F803A008
:102CC0002046F1B200F082F905EB46110220C1F86E
:102CD00008095FEA086003D53146204602F078FD16
:102CE0007F08761C002F96D1206805F053F9002844
:102CF00011DAD5F8040820F00101C5F8041894F899
:102D0000CC0401283BD0204600F016FA2068416927
:102D100001F000414161206805F03CF900050BD548
:102D2000D5F80808C00702D0204600F049FA20680C
:102D3000416901F400614161206805F02BF900014F
:102D40000AD52068416901F00061416194F8CC0422
:102D5000E0B1204600F034FA206805F01BF9C00409
:102D600072D5D5F8040820F00101C5F804182068D0
:102D7000102105F0B8F800214FF67F322DE0002138
:102D8000204684F8CCA4FFF70DFDBFE784F8CC946F
:102D90002068406D0121C0F38300C4F8D0042046B0
:102DA000FFF700FDD8E700BF05EB4110C0F8082988
:102DB000D0F8003923F40013C0F80039C0F8082B0C
:102DC000D0F8003B23F40013C0F8003BD0F8003BE0
:102DD00043F00063C0F8003B491C20798842E3D8E7
:102DE000D5F81C0840F00111C5F81C18E07B68B14B
:102DF000D5F8840840F00B01C5F88418D5F84408CC
:102E000040F00B012846C5F844180DE0D5F8140829
:102E100042F22B010843C5F81408D5F8100840F019
:102E20000B012846C5F81018D0F8000820F4FE6100
:102E3000C5F80018A1792068009A04F043FE2068C4
:102E4000416901F480514161206805F0A3F88004D4
:102E500015D5206804F080FC206805F062F8E07168
:102E600001F048F9E2790146206805F0F7F82046BC
:102E700000F04CF92068416901F40051416120687B
:102E800005F088F8000707D5204600F059F92068BA
:102E9000416901F008014161206805F07BF80006F6
:102EA00016D5A869012620F08001A9610DE000BFB8
:102EB00006EBC60004EB800090F85702012803D10E
:102EC0002046F1B2FFF7B1FC761C2079B042EFD872
:102ED000206805F05FF8C0021FD501264F4614E0B8
:102EE00006EBC60105EB461004EB8101D0F80009A2
:102EF0000A7E012A08D1002806DAF0B2CF7540F028
:102F000080012046FFF791FC761C2079B042E7D87B
:102F10002068416901F480114161206805F03AF8A8
:102F2000800234D501204B4629E000000A30544F7E
:102F300000EBC00205EB401104EB8202D1F8001B4C
:102F400092F85862012E19D1002917DA94F8D46446
:102F500001F4803106F00106B1420FD182F85732F8
:102F6000A96941F08002AA616969090606D4D5F809
:102F7000040840F40070C5F8040803E0401C2179FF
:102F80008142D5D82068416901F40011416120686F
:102F900005F000F8400007D52046FFF72BFC20681D
:102FA000416901F080414161206804F0F3FF40076E
:102FB0000AD520684568680702D52046FFF731FC2E
:102FC0002068416829434160BDE8FC9FD0F8E004D7
:102FD00004F077B8D0F8E00404F087B8F8B504003E
:102FE00004D094F89504002510B106E00120F8BD46
:102FF000204684F8945400F057F8032084F8950490
:10300000206804F059FD207C8DF8000094E80F0042
:1030100004F0B0FB0226B0BB2068002104F0DEFF04
:1030200088BB002001270CE000EBC001421C04EB30
:1030300081014F750D76CD610D624D620875C885B1
:10304000D0B221798142EFD8002011E000EBC0011D
:10305000421C04EB810181F8555281F85852C1F8A5
:103060005C52C1F86052C1F8645281F85402D0B287
:1030700021798142EAD8207C8DF8000094E80F0085
:1030800004F064FC10B184F89564AFE7207B6574AC
:1030900084F89574012802D12046FFF76FFB206861
:1030A00004F046FC0020F8BD10B5B0B00446B821CD
:1030B0006846FDF7D3F913492068884220D10020E3
:1030C0004FF480214FF440122192CDE90010684660
:1030D00000F016FA08B1FDF700FF00F0B3F80A4857
:1030E000016841F00071016000680022052100F0D4
:1030F00000702E904D20FFF7FDFA4D20FFF7ECFAFF
:1031000030B010BD00000440D844025870B50446E9
:10311000C079012570B1022801D0FDF7DEFED4F898
:10312000E004294604F050F8D4F8E004BDE870400B
:1031300004F004B80025F2E7D0F8E00404F02DB85C
:10314000D0F8E00404F033B810B5044690F89404C5
:1031500001280AD00120617484F89404206804F0E6
:103160006CFF002084F8940410BD022010BDD0F83C
:10317000E02400F29C41104604F032B810B590F8FB
:10318000941404460068012909D0012184F894149C
:10319000C168490609D5617B012902D005E00220FA
:1031A00010BD816B41F480318163206804F079FEA9
:1031B000206804F0AFFB002084F8940410BD0000E8
:1031C00010B50446D0F8E00404F04CF82068D0F8BC
:1031D000001E41F00101C0F8001EE07A002804D072
:1031E0000248016841F00601016010BD10ED00E0E9
:1031F000134970B50A68D243520705D5096801F032
:103200000701814213D118E00A6822F00702024345
:103210000A60FFF7D1F90A4D4FF47A760446083D6B
:1032200007E000BFFFF7C8F9001BB04201D9012039
:1032300070BD2868C0438004F4D4002070BD000035
:103240000C4802580248016841F0807101607047E3
:103250000C48025810B500F04DFF05490968054AB1
:10326000C1F30211515C01F01F01C84010BD000004
:1032700020440258D8B40008494930B5484C0B1DC9
:103280000A68143409681D68246802F00303C5F352
:103290000012C1F30531C4F3CC04002914FB02F27F
:1032A00000EE102AF8EE400A75D03F4A9FED3D1A15
:1032B000B7EE000A6BB1DFED3D1A012B01D0022BF6
:1032C00064D002EE101A1168F8EE422A81EEA22AAA
:1032D00021E0334C283C23689B0612D5344B2468EC
:1032E00001EE901A1168C4F3C104F8EE612AE340BC
:1032F00001EE903AC1F30801F8EE611A81EEA22ABC
:103300000BE001EE901ADFED2B2A00BFF8EE611AF8
:10331000116882EEA12AC1F3080101EE901A11682A
:10332000F8EE611A40EE811A71EE800A62EE200A10
:10333000C1F3462101EE101AB8EE411A31EE001A1F
:10334000C0EE811ABCEEE11A80ED001A1168C1F3DB
:10335000064101EE101AB8EE411A31EE001AC0EE25
:10336000811ABCEEE11A80ED011A1168C1F3066101
:1033700001EE101AB8EE411A31EE000A80EE801A02
:10338000BCEEC10A80ED020A30BD04E001EE901AE5
:10339000DFED092ABAE70021016041608160F3E7AF
:1033A0002844025800000039384402580024744A66
:1033B0000090D0030024744C20BCBE4B494930B56A
:1033C000484C0B1D0A681C3409681D68246802F00B
:1033D0000303C5F30022C1F30551C4F3CC04002953
:1033E00014FB02F200EE102AF8EE400A75D03F4AB4
:1033F0009FED3D1AB7EE000A6BB1DFED3D1A012BD0
:1034000001D0022B64D002EE101A1168F8EE422AA5
:1034100081EEA22A21E0334C283C23689B0612D57A
:10342000344B246801EE901A1168C4F3C104F8EE1D
:10343000612AE34001EE903AC1F30801F8EE611A07
:1034400081EEA22A0BE001EE901ADFED2B2A00BFDD
:10345000F8EE611A116882EEA12AC1F3080101EEAB
:10346000901A1168F8EE611A40EE811A71EE800A26
:1034700062EE200AC1F3462101EE101AB8EE411A9D
:1034800031EE001AC0EE811ABCEEE11A80ED001A8E
:103490001168C1F3064101EE101AB8EE411A31EE7F
:1034A000001AC0EE811ABCEEE11A80ED011A116813
:1034B000C1F3066101EE101AB8EE411A31EE000AAE
:1034C00080EE801ABCEEC10A80ED020A30BD04E035
:1034D00001EE901ADFED092ABAE700210160416090
:1034E0008160F3E728440258000000394044025844
:1034F0000024744A0090D0030024744C20BCBE4BBE
:103500002DE9FE4F0546DFF800A450F8081B002403
:10351000FD4FC943019005F1280026460AF1240A0F
:10352000009008011DD4686E50B1B0F5801F0CD01A
:10353000B0F5001F0ED0B0F5401F1ED001240FE0E3
:10354000386840F40030386017E00198022102F03A
:1035500091F903E00098022102F01CFA04000CD05B
:1035600026462888C043C00523D4A86D05281ED24E
:10357000DFE800F00C11161B1B006A6EDAF8001071
:1035800021F440111143CAF80010EAE7386840F40A
:103590000030386009E00198002102F06BF903E087
:1035A0000098002102F0F6F90446C4B100E00124BD
:1035B00026462888DFF85083C04308F12C084005D0
:1035C0002FD4D5F8A400B0F5C00F28D010DCB8B1C6
:1035D000B0F5001F19D0B0F5800F0FD11AE0AA6D19
:1035E000DAF8001021F007011143CAF80010E0E7F3
:1035F000B0F5000F13D0B0F5200F10D001240FE06C
:10360000386840F40030386009E00198002102F089
:1036100031F903E00098002102F0BCF9044694B1AE
:1036200026462888C043000530D4D5F8A800B0F15C
:10363000407F29D011DCC0B1B0F1807F1AD0B0F149
:10364000007F10D11BE0D5F8A420D8F8001021F499
:1036500060011143C8F80010E3E7B0F1806F13D0A8
:10366000B0F1A06F10D001240FE0386840F40030B2
:10367000386009E00198002102F0FCF803E00098AE
:10368000002102F087F9044694B126462868DFF845
:1036900078B2C0430BF1200B80011FD4E86CD8B185
:1036A00010280FD0202812D0302815D0012414E083
:1036B000D5F8A820D8F8001021F0E0611143C8F82F
:1036C0000010E3E7386840F40030386004E0019807
:1036D000022102F0CFF8044674B126462888C04380
:1036E000C0042BD4E86DB0F5005F20D00DDCA0B194
:1036F000B0F5805F0FD115E0EA6CDBF8001021F027
:1037000030011143CBF80010E8E7B0F5405F13D06B
:10371000B0F5804F10D001240FE0386840F400303D
:10372000386009E00198002102F0A4F803E0009855
:10373000002102F02FF904468CB126462888C043A8
:10374000800429D4286EB0F5403F23D010DC08B3A4
:10375000B0F5803F14D0B0F5003F0FD115E0EA6D11
:10376000DAF8001021F4E0411143CAF80010E5E74F
:10377000B0F5802F0ED0B0F5A02F0BD001240AE0B9
:103780000198012102F076F803E00098012102F08F
:1037900001F9044694B126462888C04340042AD43F
:1037A000D5F8AC00B0F1405F23D010DC08B3B0F125
:1037B000805F14D0B0F1005F0FD115E02A6EDAF807
:1037C000001021F4E0211143CAF80010E4E7B0F141
:1037D000804F0ED0B0F1A04F0BD001240AE0019829
:1037E000012102F047F803E00098012102F0D2F82D
:1037F000044674B126462888C04300041FD4E86EEE
:10380000D8B1B0F1805F0ED0B0F1005F10D00124CC
:1038100014E0D5F8AC20D8F8001021F0E0411143B5
:10382000C8F80010E7E7386840F40030386004E07A
:103830000198012102F01EF8044674B1264628685A
:10384000C043C0011ED4A86CD0B101280ED00228FC
:1038500011D0032814D0012413E0EA6EDAF8001026
:1038600021F040511143CAF80010E8E7386840F4ED
:103870000030386004E00198022101F0FBFF0446AB
:103880006CB126462868C043400255D41F480168E1
:1038900041F480710160FEF78FFE81460EE0AA6C54
:1038A000DBF8001021F003011143CBF80010E9E729
:1038B000FEF782FEA0EB090064283BD8134800689D
:1038C000C005F5D5BCBBDFF84090B5F8B01009F1E4
:1038D0004409D9F8000001F4407100F440708842B6
:1038E00011D0D9F80010D9F8002021F4407142F429
:1038F0008032C9F80020D9F8002022F48032C9F8BB
:103900000020C9F8001003E02C4402580048025877
:10391000D5F8B000B0F5807F19D1FEF74DFE0290CA
:1039200011E000BFFEF748FE0299411A41F28830CB
:10393000814208D9032426462878DFF81494C0432E
:10394000C00721D03CE0D9F800008007EAD5D5F8BF
:10395000B010C1F301200328FE480DD0016821F406
:103960007C510160B5F8B020D9F80010C2F30B0209
:103970001143C9F80010DFE7F74A036802EA1112A1
:1039800023F47C511143ECE7A86F182816D005DC0E
:10399000A0B1082808D0102804D10AE020280DD0B2
:1039A00028280BD001240AE00198012101F062FFD0
:1039B00003E00098012101F0EDFF044664B12646C2
:1039C0002878C04380071ED4686F062819D2DFE824
:1039D00000F0160C11161616AA6FD9F8001021F077
:1039E00038011143C9F80010EAE70198012101F0FC
:1039F00041FF03E00098012101F0CCFF04467CB1B7
:103A000000E0012426462878C04340071FD4D5F89B
:103A10009000062819D2DFE800F0160C11161616D1
:103A20006A6FD9F8001021F007011143C9F800109E
:103A3000E9E70198012101F01DFF03E00098012151
:103A400001F0A8FF0446A4B100E00124264628782E
:103A5000C04380062BD4D5F88C00B0F1405F24D051
:103A600011DC10B3B0F1805F15D0B0F1005F10D160
:103A700016E0D5F89020D8F8001021F00701114386
:103A8000C8F80010E3E7B0F1804F0ED0B0F1A04FBE
:103A90000BD001240AE00198002101F0EBFE03E0C5
:103AA0000098022101F076FF044694B1264628785A
:103AB000C04340062BD4D5F89800B0F5406F24D011
:103AC00011DC10B3B0F5806F15D0B0F5006F10D1D8
:103AD00016E0D5F88C20D9F8001021F0E041114310
:103AE000C9F80010E3E7B0F5805F0ED0B0F5A05F35
:103AF0000BD001240AE00198002101F0BBFE03E095
:103B00000098022101F046FF044694B12646287829
:103B1000C04300062BD4D5F89C00B0F5C04F24D08C
:103B200011DC10B3B0F5005F15D0B0F5804F10D1A7
:103B300016E0D5F89820D8F8001021F4E051114390
:103B4000C8F80010E3E7B0F5004F0ED0B0F5204FF5
:103B50000BD001240AE00198002101F08BFE03E064
:103B60000098022101F016FF044654B12646287839
:103B7000C04300071ED4D5F88000B0F5805F0AD09E
:103B80000FE0D5F89C20D8F8001021F460411143D3
:103B9000C8F80010EBE70098022101F0FBFE00B12D
:103BA0000126D5F88020D9F8001021F440511143A6
:103BB000C9F800102878C043C00613D4D5F8940083
:103BC000B0F5807F05D10098022101F0E3FE00B13D
:103BD0000126D5F89420D8F8001021F44071114343
:103BE000C8F800102868C043000316D4D5F8A00018
:103BF00038B1B0F5803F09D0B0F5003F0BD00124BB
:103C00000AE00198002101F035FE03E0009802214E
:103C100001F0C0FE04468CB126462868C04340032C
:103C200022D4D5F88400B0F5801F11D0B0F5001F64
:103C300013D0B0F5401F15D0012414E0D5F8A02012
:103C4000D8F8001021F440311143C8F80010E4E71F
:103C5000386840F40030386004E00098012101F039
:103C600099FE04465CB126462868C043C0031CD4B4
:103C7000286D70B1B0F5803F10D0012414E0D5F864
:103C80008420D9F8001021F440111143C9F8001024
:103C9000EAE7386840F40030386004E00198022117
:103CA00001F0E8FD0446DCB126462868C0438000E8
:103CB00005D40098022101F06DFE00B101262868AC
:103CC000C04380031BD4E86FB8B1B0F5807F10D03B
:103CD000B0F5007F11D0B0F5407F0ED001240DE08B
:103CE0002A6DDBF8001021F480311143CBF800106D
:103CF000DBE7386840F4003038607CB3264628683B
:103D0000C043C00207D42A6FDAF8001021F0004146
:103D10001143CAF800102868C043800207D4AA6E75
:103D2000DAF8001021F080711143CAF800102868F9
:103D3000C043400009D40748016821F400410160F4
:103D40000168D5F8B420114301602868C04306E03B
:103D50005444025810440258CFFFFF001DE007D41E
:103D60006A6DDBF8001021F040511143CBF80010D0
:103D70002868C043000208D4D5F88820D9F800107C
:103D800021F440011143C9F8001028790024C043F0
:103D900000F00100204309D00EE0EA6FD9F80010CE
:103DA00021F440711143C9F80010A8E701980021DF
:103DB00001F060FD00B106462879C04300F0020022
:103DC000204305D10198012101F054FD00B10646C0
:103DD0002879C04300F00400204305D10198022156
:103DE00001F048FD00B106462879C04300F0080004
:103DF000204305D10098002101F0CCFD00B106461A
:103E00002879C04300F01000204305D1009801211B
:103E100001F0C0FD00B106462879C04300F0200043
:103E2000044304D10098022101F0B4FD00B916B199
:103E30000120BDE8FE8F0020FBE700002DE9F05FC8
:103E400004000F467ED0DFF83882D8F8000000F07A
:103E50000F00B8420CD2D8F8001021F00F013943FE
:103E6000C8F80010D8F8000000F00F00B84269D17F
:103E70002078844D40070AD52069296801F0700137
:103E8000884204D9296821F0700101432960207813
:103E90007C4E361D00070AD56069316801F070015B
:103EA000884204D9316821F07001014331602078E3
:103EB000C0060AD5A069316801F4E061884204D9DE
:103EC000316821F4E061014331602078DFF8B4B15A
:103ED00080060BF1080B0CD5E1695846DBF8002091
:103EE00002F07002914204D9026822F070020A4383
:103EF0000260207880070AD5E068296801F00F0188
:103F0000884204D9296821F00F01014329602078F3
:103F1000C0073ED05B49A2682868183920F4706059
:103F2000104328606068022818D0032819D0096857
:103F3000012819D0490700294ADADFF848A1AAF177
:103F4000080A00E044E0DAF8002022F00702024309
:103F5000CAF80020FEF730FB814612E009688903A9
:103F6000E9E709688901E6E7C905E4E7FEF724FB0C
:103F7000A0EB090141F28830814202D90320BDE85B
:103F8000F09F6168DAF8000000F03800B0EBC10F74
:103F9000ECD1207880070AD5E068296801F00F018C
:103FA000884204D2296821F00F0101432960D8F822
:103FB0000010404601F00F01B9420BD9016821F011
:103FC0000F0139430160006800F00F00B84201D0D2
:103FD0000120D4E7207840070AD52069296801F03C
:103FE0007001884204D2296821F0700101432960E0
:103FF000207800070AD56069316801F070018842B5
:1040000004D2316821F07001014331602078C0068C
:104010000AD5A069316801F4E061884204D23168B0
:1040200021F4E06101433160207880060CD5E1691C
:104030005846DBF8002002F07002914204D2026878
:1040400022F070020A43026000F09AF80E492A68D2
:104050002B68C2F3032203F00F038A5CC95C02F0F1
:104060001F0201F01F01D040084A20FA01F111603F
:104070000749086007480068BDE8F05FFEF7D8BA56
:104080000020005218440258D8B4000888000024C8
:10409000840000247C00002470B5144C3F22026090
:1040A000124A24680832131D114D04F007044460BD
:1040B00016681C1D06F470668660166806F00F060A
:1040C000C660126802F0700202611A6802F07002A3
:1040D00042611A6802F4E0628261226802F07002B2
:1040E000C261286800F00F00086070BD10440258DB
:1040F0000020005230B500F043F80B4A0B490C4B3E
:1041000015681468C5F3032204F00F048A5C095D86
:1041100002F01F0201F01F01D040064A20FA01F10F
:1041200019601060084630BD18440258D8B4000821
:10413000880000248400002400B5FFF7DBFF054958
:104140000968054AC1F30211515C01F01F01C84022
:1041500000BD00001C440258D8B4000800B5FFF7A9
:10416000C9FF05490968054AC1F30221515C01F004
:104170001F01C84000BD00001C440258D8B400080C
:10418000454970B545480968434B103B11F038026A
:1041900008D00111082A03D0102A0BD0182A0BD0FE
:1041A000084670BD19688906FBD51968C1F3C101BD
:1041B000C84070BD3A4870BD3749374D18310C1DA5
:1041C00024350A68096826682D6802F0030406F0A1
:1041D0000102C1F30511C5F3CC0515FB02F200EE97
:1041E000102AB8EE400AE9B32F4ADFED2E0AB7EEE7
:1041F000001A6CB1DFED2D1A012C01D0022C43D036
:1042000002EE101A1068F8EE422A81EEA22A1EE091
:104210001C68A40611D51B6801EE901A1168C3F33F
:10422000C103F8EE612AD84001EE900AC1F30800FC
:10423000F8EE611A81EEA22A0BE001EE901ADFED92
:104240001C2A00BFF8EE611A106882EEA12AC0F3A2
:10425000080001EE900AF8EE611A40EE201A31EEE5
:10426000810A00E015E022EE000A1068C0F3462043
:10427000401C00EE900AF8EE600A80EE201ABCEEB8
:10428000C10A10EE100A70BD01EE901ADFED092A86
:10429000D8E7002070BD0000104402580090D00301
:1042A00040787D0100000039304402580024744AEF
:1042B0000024744C20BCBE4B2DE9F05F04007DD07F
:1042C000FF4F2078FE4D1837DFF8F483103DC0070C
:1042D00048D0D8F80000396800F03800102815D010
:1042E000182803D101F0030002280FD06068B0F550
:1042F000803F12D010B1B0F5A02F18D0286820F45C
:1043000080302860286820F4802009E02868800335
:1043100028D560680028D2D024E0286840F4803096
:104320002860606888B1FEF747F9064609E028680A
:1043300040F480202860F0E7FEF73EF9801B6428F7
:104340007ED828688003F7D50CE0FEF735F90646DD
:1043500005E000BFFEF730F9801B6428F0D828681C
:104360008003F7D42078800756D5D8F80000DFF80E
:104370005093396810F03800A9F10C090ED01828B4
:1043800001D188070AD0E068A8B3296821F0190193
:1043900001432960FEF710F9064628E02868400727
:1043A00002D5E06800288AD0E168286820F019006A
:1043B00008432860FEF700F9064606E0D2E000BF99
:1043C000FEF7FAF8801B0228BAD828684007F7D50C
:1043D000217CD9F8002022F0FE4242EA0161C9F8AE
:1043E000001019E0FEF7E8F8801B0228A8D828681A
:1043F0004007F7D5ECE7FFE7286820F001002860C8
:10440000FEF7DAF8064604E0FEF7D6F8801B02282D
:1044100096D828684007F7D42078C00646D5D8F843
:104420000000DFF89C92396800F03800A9F1040917
:10443000082812D0182805D101F00300012800E057
:10444000CEE00AD0E0690028286820D040F0800043
:104450002860FEF7B1F8064615E02868C00502D5C9
:10446000E06980287ED194F82010D9F8002022F04D
:104470007C5242EA0161C9F8001017E0FEF79CF88F
:10448000801B0228A0D82868C005F7D5EBE720F0EC
:1044900080002860FEF790F8064604E0FEF78CF8EE
:1044A000801B022890D82868C005F7D42078000720
:1044B00029D583486169643000298146016811D09B
:1044C00041F001010160FEF777F8064605E000BF04
:1044D000FEF772F8801B022888D8D9F80000800700
:1044E000F6D510E021F001010160FEF765F80646FF
:1044F00005E000BFFEF760F8801B022870D8D9F8ED
:1045000000008007F6D42078800623D5A069002813
:10451000286810D040F480502860FEF74DF8064619
:1045200005E000BFFEF748F8801B022858D828682D
:104530008004F7D50EE020F480502860FEF73CF8A8
:10454000064604E0FEF738F8801B022848D82868A1
:104550008004F7D42078400751D5DFF86891D9F866
:10456000001000E015E141F48071C9F80010FEF779
:1045700023F8064605E000BFFEF71EF8801B6428FE
:104580002ED8D9F80000C005F6D54D4EA06860368B
:1045900001280AD008B1052813D0306820F00100A6
:1045A0003060306820F0040002E0306840F0010024
:1045B0003060A06841F2883A98B1FDF7FDFF81466E
:1045C0000AE0306840F004003060EEE7FDF7F4FFE9
:1045D000A0EB0901514503D830688007F6D50EE0FD
:1045E00072E0FDF7E9FF814606E000BFFDF7E4FF5A
:1045F000A0EB0901514567D830688007F6D4606A9E
:1046000000287CD0DFF8B8A0D8F800100AF1200A02
:104610004FF6F87B0AF10408C1F3C2010329AAF19D
:1046200004096DD00228286820F08070286003D02B
:10463000FDF7C2FF044681E0FDF7BEFF064604E039
:10464000FDF7BAFF801B022875D828688001F7D4CF
:10465000E26A40F2F331386854F8283F884340EA70
:10466000021018433860217B4FF4FE0C22894FF072
:10467000FE47208A4902267D521E401EA1F5007188
:1046800089B2C2F308021143761E0CEA00400143CE
:10469000484607EA06621143CAF80010D9F800102C
:1046A00021F00101C9F80010D8F80030266A23EA89
:1046B0000B0343EAC601C8F80010D9F8001004E063
:1046C000104402580048025835E0A26921F00C015C
:1046D0001143C9F800100168E26921F00201114399
:1046E0000160016841F480310160016841F40031EA
:1046F0000160016841F480210160016801E06CE023
:1047000020E041F001010160286840F080702860DD
:10471000FDF752FF044604E0FDF74EFF001B0228A0
:1047200009D828688001F7D557E000BFFDF744FF9E
:10473000001B022802D90320BDE8F09F28688001F1
:10474000F4D44AE039680128DAF8000021D0A26ADE
:1047500001F0030393421CD1E26AC1F305118A42BE
:1047600017D1216BC0F30802491E8A4211D1616B37
:10477000C0F34622491E91420BD1A16BC0F3064201
:10478000491E914205D1E16BC0F30660491E81428A
:1047900001D00120D0E7A16C4646D8F80000C0F354
:1047A000CC00814219D0D9F800004D4620F001001C
:1047B000C9F80000FDF700FF4FEA0007FDF7FCFE17
:1047C000B842FBD0A26C306820EA0B0040EAC2007D
:1047D0003060286840F0010028600020ACE700004D
:1047E00010B50B4601680F48002A496801EA00012C
:1047F00001F03F044FEA1140D870C1F304225A700F
:104800009C70C1F3423119700AD101F053F9D8708C
:10481000587801F04FF95870987801F04BF998707A
:10482000002010BD3FFFFF0010B50B460168134C80
:10483000002A896A596001680969C1F30E0199600B
:104840000068016801EA040101F07F04C1F305403A
:104850001870C1F306225A709C704FEA9151D970BA
:104860000AD101F027F91870587801F023F958702F
:10487000987801F01FF99870002010BD7F7F7F00AD
:1048800070B504004FF0010041D094F8210028B920
:10489000002084F82000204600F042F8022084F82E
:1048A00021002068C168C943C90631D5CA224262C5
:1048B000532120684162204601F012F918BB20689C
:1048C000164A816811408160D4E90003A569226914
:1048D00081682A4319431143816022682189E06875
:1048E00040EA01401061204601F01EF958B92168E4
:1048F000CA6C22F00302CA6422686369E169D56C5C
:1049000019432943D1642268FF21516208B170BD67
:104910000020012184F8211070BD0000BFFF8FFF2F
:1049200010B5AEB00446B8216846FBF797FD0B49B9
:104930002068884210D1010200204A132C92CDE950
:1049400000106846FEF7DCFD08B1FCF7C6FA044823
:10495000016841F4004101602EB010BD00400058D4
:104960007044025870B5044690F820000B460128A8
:104970001BD0012684F82060022084F8210058789A
:10498000AAB1DA78000299781B7841EA024540EA38
:10499000433005432268CA2153205162216848628E
:1049A000204601F09DF8C8B11FE0022070BDC1068D
:1049B00003D500F0EF000A305870D87801F083F882
:1049C0000204587801F07FF842EA0022987801F05A
:1049D0007AF81978024342EA4135DBE72168084852
:1049E00005404D60204601F09FF82268FF2151628A
:1049F00008B984F82160002184F8201070BD0000FF
:104A00003FFFFF002DE9F041044690F8200090465A
:104A10000D46012812D0012784F82070022184F865
:104A20002110CA202268532150622068416220462A
:104A300001F056F84FF0000618B12AE00220BDE858
:104A4000F0812068B8F1000F80684FEA406025D0FF
:104A5000002800DBEE7068782A78A978EB784FEAB6
:104A6000002C41EA02404CEA83510843226818496D
:104A7000084010602068816821F4802181602168ED
:104A8000D5E903028B68104318438860204601F083
:104A90004BF82268FF215162A0B115E0002800DB2D
:104AA000EE70287801F00FF80204687801F00BF836
:104AB00042EA0022A87801F006F8E978024342EAC7
:104AC0008150D3E784F8217084F82060B7E70000B4
:104AD0007F7F7F0070B5016804460B48C860FDF712
:104AE0006BFD4FF47A76054607E000BFFDF764FDE5
:104AF000401BB04201D9032070BD2068C068800609
:104B0000F4D5002070BD00005FFF030070477047C0
:104B1000704710B5040003D094F83D0010B107E0D1
:104B2000012010BD002084F83C00204600F022F84F
:104B3000022084F83D002068211D01F0F5F80120D5
:104B400084F8480084F83E0084F83F0084F8400070
:104B500084F8410084F8420084F8430084F844005B
:104B600084F8450084F8460084F8470084F83D0046
:104B7000002010BD7047000090F83D10012901D0C1
:104B8000012070471A4A022180F83D100168CB6865
:104B900043F00103CB60006890421AD0B0F1804F1F
:104BA00017D01449884214D01349884211D01349B0
:104BB00088420ED0124988420BD01249884208D050
:104BC0001149884205D01149884202D010498842D3
:104BD00007D181680F4A1140062906D0B1F5803F00
:104BE00003D0016841F0010101600020704700001E
:104BF000000001400004004000080040000C00409C
:104C000000040140001800400040014000E0004066
:104C100000E400400700010070472DE9F041044620
:104C200000680027C6680569A90713D5B10711D523
:104C3000FA1E0261012121772068806980072046E1
:104C400002D0FFF7E9FF04E000F08BF8204600F007
:104C500089F82777680716D5700714D522680220CF
:104C60006FF00401116120772068806910F4407FA3
:104C7000204602D0FFF7D0FF04E000F072F8204693
:104C800000F070F82777280715D5300713D522686C
:104C900004206FF00801116120772068C069800747
:104CA000204602D0FFF7B8FF04E000F05AF8204693
:104CB00000F058F82777E80616D5F00614D52268D4
:104CC00008206FF01001116120772068C06910F48E
:104CD000407F204602D0FFF79FFF04E000F041F83C
:104CE000204600F03FF82777E80708D0F00706D005
:104CF00021686FF001000861204600F035F82806B1
:104D000001D4A80408D5300606D521686FF40250F6
:104D100008612046FFF7FBFEE80508D5300606D5FA
:104D200021686FF4807008612046FFF7EFFE680687
:104D300008D5700606D521686FF04000086120464E
:104D400000F022F8A8060AD5B00608D521686FF051
:104D5000200008612046BDE8F041FFF7D9BEBDE85C
:104D6000F08170477047000000680549884205D10E
:104D700004490888401C0880FDF724BC70470000E7
:104D80000048014088010024704730B590F8841035
:104D9000012918D0012280F884202421C0F888102D
:104DA0000022202401680B680D6823F0005325F0D1
:104DB00001050D60426601680B60C0F8884080F80C
:104DC0008420104630BD022030BD7047704770B55A
:104DD000044690F8840001281DD0012284F8842024
:104DE0002420C4F8880020680568026822F00102C7
:104DF00002602068826822F060620A438260204676
:104E000001F004F82268202100201560C4F8881001
:104E100084F8840070BD022070BD70B5044690F81F
:104E2000840001281DD0012284F884202420C4F8A5
:104E3000880020680568026822F00102026020688C
:104E4000826822F060420A438260204600F0DEFF62
:104E50002268202100201560C4F8881084F884009E
:104E600070BD022070BD7047704770B50168044680
:104E7000D0F888001025D4F88C608968090618D508
:104E8000212816D12068083050E8001F21F0800149
:104E900040E80012002AF5D1E06F38B1FCF7D8F8ED
:104EA00020B1E06FFCF7C6FB202823D0204601F09C
:104EB00035F92068806840061AD5222E18D120685E
:104EC000083050E8001F21F0400140E80012002A9D
:104ED000F5D1D4F8800040B1FCF7BAF828B1D4F885
:104EE0008000FCF7A7FB202804D0204601F0ECF856
:104EF000002070BDC4F89050032070BD70470000C2
:104F00002DE9F04107680025044640F60F0302260C
:104F1000F8693968BA6818420AD183067ED501F06B
:104F2000200302F0805C53EA0C0377D0616F74E1D8
:104F3000CF4BDFF840C3134001EA0C0C53EA0C0CD2
:104F40006CD05FEAC07C0CD05FEAC15C09D54FF041
:104F5000010CC7F820C0D4F8907047F00107C4F8DE
:104F60009070870709D5D70707D027683E62D4F825
:104F7000906046F00406C4F8906046070AD5D6074C
:104F800008D0276804263E62D4F8906046F00206F6
:104F9000C4F8906006070CD501F020061E4308D027
:104FA000266808233362D4F8903043F00803C4F82D
:104FB000903003050BD54B0109D526684FF40063EB
:104FC0003362D4F8903043F02003C4F89030D4F822
:104FD0009030002B3DD0800609D501F0200002F072
:104FE0008051084303D0616F09B12046884721688A
:104FF000D4F890008968490602D410F0280F2AD00E
:10500000204601F061F82068806840061ED52068BF
:10501000083050E8001F21F0400100E021E040E8A6
:105020000012002AF3D1D4F8800078B192490165CA
:10503000D4F88000FCF7BCF900280AD0D4F880002E
:10504000016D00E02046BDE8F04108472046FFF72B
:1050500055FFBDE8F0812046FFF750FFC4F890509F
:10506000F7E7D4F86CC02023BCF1010F7ED15FEAD2
:10507000C06C7BD55FEAC16C78D51020386220689F
:105080008068400673D5D4F880107C4A0868904246
:1050900034D07A4A1832904230D0784A3032904236
:1050A0002CD0764A4832904228D0744A60329042DE
:1050B00024D0724A7832904220D0704A9032904286
:1050C0001CD06E4AA832904218D06D4A904215D03A
:1050D0006B4A1832904211D0694A303290420DD05A
:1050E000674A4832904209D0654A6032904205D002
:1050F000634A7832904201D0614A9032406800049D
:10510000000CA6D0B4F85C208242A2D9A4F85E00BC
:10511000C869B0F5807F2FD0216851E8000F20F4D6
:10512000807041E80002002AF6D12068083050E87B
:10513000001F21F0010140E80012002AF5D120688B
:10514000083050E8001F21F0400140E80012002A1A
:10515000F5D1C4F88C30E566216851E8000F20F0E5
:10516000100041E80002002AF6D101E040E00BE027
:10517000D4F88000FBF76CFF2667B4F85C00B4F845
:105180005E10401A81B22FE0B4F85C00B4F85E10F3
:10519000B4F85E20401A81B2002AB2D00029B0D003
:1051A000226852E8000F20F4907042E80007002FB8
:1051B000F6D1344F206800F1080050E8002F02EAD1
:1051C000070240E8002CBCF1000FF3D1C4F88C308A
:1051D000E5666567206850E8002F22F0100240E87D
:1051E0000023002BF6D126672046FFF7EEFD30E7BF
:1051F000C60209D5560207D54FF480103862204602
:10520000BDE8F041FFF730BE06060AD501F0800682
:1052100002F40002164304D0A16F00297FF412AFFC
:1052200017E7420611D54A060FD52046026852E814
:10523000001F21F0400142E80014002CF6D1C0F814
:105240008830856700F03AF903E7020206D54A0084
:1052500004D52046BDE8F041FFF705BEC001C6D524
:105260000029C4DA2046BDE8F041FFF7AFBD0000D9
:105270000100001020010004C35F0008100002407C
:1052800010040240FEFFFFEF10B5040003D0D4F875
:10529000880010B107E0012010BD002084F88400D0
:1052A000204600F027F82420C4F888002068016810
:1052B00021F001010160A06A10B1204600F0C8FD94
:1052C000204600F043FF0128E6D02068416821F421
:1052D000904141602068816821F02A018160206846
:1052E000016841F0010101602046BDE8104000F076
:1052F00013BE000070B5B4B0064614212EA8FBF70B
:10530000ADF8B8216846FBF7A9F82849306888420B
:1053100049D100201E9001210546CDE900106846C4
:10532000FEF7EEF808B1FBF7D8FD2148016841F01F
:1053300010010160006800F0100033901C48103824
:10534000016841F00101016000682EAB022100F00C
:10535000010033904FF4C060072283E82300154812
:105360002EA9CDE93152FDF719F8134C2921134824
:10537000021584E82300C4E9035265612046A56153
:10538000E56125626562FCF7CBFC08B1FBF7A5FD82
:10539000C6F8804000220521A6632520FDF7AAF962
:1053A0002520FDF799F934B070BD000000100140D0
:1053B000F044025800000258B002002410000240DD
:1053C00030B4D0F88C30202B02D0022030BC704793
:1053D000A9B1A2B10B4D00240368C466AB420BD047
:1053E0005B681B0208D5046854E8003F43F0806303
:1053F00044E80035002DF6D130BC01F095B801200D
:10540000E4E70000000C0058704770472DE9F843AE
:105410000446D0F88800984616460D46202802D04B
:105420000220BDE8F883A5B19EB10021C4F8901018
:105430002120C4F888001834FDF7BEF8814654F8DE
:10544000100CA687E6872027183CB0F5805F02D0B5
:1054500003E00120E5E7206910B12E46002510E0A9
:1054600000260EE08021204601F0B2F8C0B9DEB17E
:1054700016F8010B21688862B4F85600401EA4F8A3
:105480005600B4F856004B464FF00002CDF80080AD
:105490000028E7D14FF04001204601F099F848B1CB
:1054A000C4F888700320BCE735F8020B2168C0F30C
:1054B0000800E0E7C4F888700020B2E77047FEE714
:1054C000F0B500230A251C463026372711E000BF1F
:1054D000B5EB107F02D906EB107C01E007EB107CE6
:1054E00001F813C001EB430C00015B1C8CF8014078
:1054F000DBB29342ECD3F0BD094808B5016841F036
:105500000101016000680022052100F00100009007
:105510000B20FDF7EFF8BDE808400B20FDF7DCB8E5
:10552000D844025800B585B0064914226846FAF7F7
:105530007CFF0021684604F092F80349086005B03A
:1055400000BD000094B400080000002400B587B03E
:1055500014216846FAF782FF1448016841F080017F
:105560000160016801F080010591016841F00801C6
:105570000160016801F008010591016841F0010135
:10558000016000680723022200F00100059000205E
:105590004FF4407100916946CDE90120CDE9030344
:1055A0000348FCF7FBFE07B000BD0000E0440258D2
:1055B000000C025810B586B014216846FAF74EFF69
:1055C0001C4800241A497F220594FF23E0E80214B6
:1055D00080E81C0004614461C4601648FFF750F97C
:1055E00008B1FBF77AFC8DF8004001228DF80140EC
:1055F000694610488DF8024003940494FFF702FABC
:1056000008B1FBF76AFC01208DF814008DF8150035
:1056100005A98DF81600024606488DF81740FFF7D9
:10562000A1F9002801D0FBF758FC06B010BD00001E
:1056300000400058F80100241848002110B5164C0D
:105640000C224FF4E1330460C0E90131C160C0E9CC
:1056500004128161C161016241628162FFF714FE3F
:1056600008B1FBF73AFC0D480021FFF7D6FB08B163
:10567000FBF733FC09480021FFF7A9FB08B1FBF752
:105680002CFC0648FFF781FB002803D0BDE8104042
:10569000FBF723BC10BD0000001001401C020024D9
:1056A00010490122104810B501F0E8FB08B1FBF7E2
:1056B00014FC0E490C4801F000FE08B1FBF70DFC8C
:1056C0000B49094801F0A6F908B1FBF706FC0648AA
:1056D00001F078FE08B1FBF700FCBDE81040FDF7D3
:1056E000B1BD00000400002474030024E400002481
:1056F00064000024FEE7FEE70148FDF79DB90000C5
:10570000701A00242DE9F041044680790D462027C7
:10571000236801284FF4004604F29C4203EB451134
:10572000D3F840C0D1F8080B09D0DFF89CE0F4456D
:105730003AD1020433D500BFC1F8086B40E0234BD7
:105740005FEA007E04D59C453AD90004F4D437E0E2
:105750005FEA806E02D5C1F8087B31E010F0280FB7
:105760002ED19C4501D90004E6D4D1F8101B05EBDD
:10577000C50004EB8000C1F31201D0F87432A3EB32
:105780000101C0F8681200F51570ADB903691BB1CD
:10579000C2681144C1600FE0206801210AE0800660
:1057A0000AD5C1F8087B07E035B9D4F8640218B906
:1057B0000021184602F086F92046E9B2FDF727F8E5
:1057C0000020BDE8F08100000A31544F0A30544FE8
:1057D0002DE9F84F0E460568814601EBC60100EB46
:1057E0008104D4E909201434904202D90120BDE893
:1057F000F88FA168101A814200D20846C01C05EB40
:10580000461887081BE000BFA268A0EB010A5245BA
:1058100000D2924699F806100AF1030000911FFA8F
:105820008AF3E16887082846F2B202F08BFCE1684F
:1058300001EB0A00E060616901EB0A006061D8F8E1
:10584000180980B2B84205D3D4E90401814201D2DB
:105850000028D9D1D4E90401884208D8D5F83418F1
:10586000012006F00F0290408143C5F83418002053
:10587000BDE700002DE9F047454D044689464FF04D
:10588000000A2868C04380070AD0414E283E30688D
:1058900020F080603060FCF78FFE0746B04608E0DD
:1058A0000120BDE8F08700BFFCF786FEC01B022880
:1058B00067D8D8F800000001F6D4206829684FF4B2
:1058C000FE0721F47C313E0241EA00302860207A54
:1058D000A389B4F804C040022D4D2D495B1E227CE3
:1058E000ACF1010C1035091DA0F5007080B2521EFC
:1058F000CCF3080C07EA034340EA0C00184306EA1D
:105900000262104328600868626920F0C0001043FA
:1059100008600A68A06922F0200202430A60281D7C
:105920000A6822F010020A6002684FF6F873E46910
:105930009A4342EAC40202600868B9F1000F40F0DD
:1059400010020A6011D00868B9F1010F11D040F4BB
:1059500000100860D8F80000444640F08060C8F8A5
:105960000000FCF729FE05460DE0086840F4002021
:10597000EFE740F48010ECE7FCF71EFE401B022826
:1059800001D903208DE720680001F5D5504688E74E
:10599000284402582DE9F047454D044689464FF00A
:1059A000000A2868C04380070AD0414E283E30686C
:1059B00020F080503060FCF7FFFD0746B04608E05D
:1059C0000120BDE8F08700BFFCF7F6FDC01B0228F0
:1059D00067D8D8F800008000F6D4208829684FF4F2
:1059E000FE0721F07C713E0241EA00502860207AD7
:1059F000A389B4F804C040022D4D2D495B1E227CC2
:105A0000ACF1010C1835091DA0F5007080B2521ED2
:105A1000CCF3080C07EA034340EA0C00184306EAFB
:105A20000262104328600868626920F440601043F5
:105A300008600A68A06922F4007202430A60281D07
:105A40000A6822F480720A6002684FF6F873E4690B
:105A50009A4342EAC40202600868B9F1000F40F4B8
:105A600080720A6011D00868B9F1010F11D040F0BE
:105A700080700860D8F80000444640F08050C8F8B4
:105A80000000FCF799FD05460DE0086840F4800031
:105A9000EFE740F40000ECE7FCF78EFD401B022826
:105AA00001D903208DE720688000F5D5504688E7AE
:105AB00028440258020900F00F0102EB820001EBBA
:105AC0004000C0B270470146002002E00A39401C85
:105AD000C9B20A29FAD2000741EA106070470000F3
